{
  "contractName": "Crowdsale",
  "abi": [
    {
      "inputs": [
        {
          "internalType": "contract IERC20",
          "name": "tokenToSell",
          "type": "address"
        },
        {
          "internalType": "uint256",
          "name": "tokenRate",
          "type": "uint256"
        },
        {
          "internalType": "address payable",
          "name": "account",
          "type": "address"
        }
      ],
      "stateMutability": "nonpayable",
      "type": "constructor"
    },
    {
      "anonymous": false,
      "inputs": [
        {
          "indexed": true,
          "internalType": "address",
          "name": "previousOwner",
          "type": "address"
        },
        {
          "indexed": true,
          "internalType": "address",
          "name": "newOwner",
          "type": "address"
        }
      ],
      "name": "OwnershipTransferred",
      "type": "event"
    },
    {
      "anonymous": false,
      "inputs": [
        {
          "indexed": true,
          "internalType": "address",
          "name": "purchaser",
          "type": "address"
        },
        {
          "indexed": true,
          "internalType": "address",
          "name": "beneficiary",
          "type": "address"
        },
        {
          "indexed": false,
          "internalType": "uint256",
          "name": "value",
          "type": "uint256"
        },
        {
          "indexed": false,
          "internalType": "uint256",
          "name": "amount",
          "type": "uint256"
        }
      ],
      "name": "TokensPurchased",
      "type": "event"
    },
    {
      "inputs": [],
      "name": "owner",
      "outputs": [
        {
          "internalType": "address",
          "name": "",
          "type": "address"
        }
      ],
      "stateMutability": "view",
      "type": "function"
    },
    {
      "inputs": [],
      "name": "renounceOwnership",
      "outputs": [],
      "stateMutability": "nonpayable",
      "type": "function"
    },
    {
      "inputs": [
        {
          "internalType": "address",
          "name": "newOwner",
          "type": "address"
        }
      ],
      "name": "transferOwnership",
      "outputs": [],
      "stateMutability": "nonpayable",
      "type": "function"
    },
    {
      "stateMutability": "payable",
      "type": "receive"
    },
    {
      "inputs": [],
      "name": "token",
      "outputs": [
        {
          "internalType": "contract IERC20",
          "name": "",
          "type": "address"
        }
      ],
      "stateMutability": "view",
      "type": "function"
    },
    {
      "inputs": [],
      "name": "rate",
      "outputs": [
        {
          "internalType": "uint256",
          "name": "",
          "type": "uint256"
        }
      ],
      "stateMutability": "view",
      "type": "function"
    },
    {
      "inputs": [],
      "name": "weiRaised",
      "outputs": [
        {
          "internalType": "uint256",
          "name": "",
          "type": "uint256"
        }
      ],
      "stateMutability": "view",
      "type": "function"
    },
    {
      "inputs": [],
      "name": "wallet",
      "outputs": [
        {
          "internalType": "address payable",
          "name": "",
          "type": "address"
        }
      ],
      "stateMutability": "view",
      "type": "function"
    },
    {
      "inputs": [
        {
          "internalType": "address payable",
          "name": "account",
          "type": "address"
        }
      ],
      "name": "setWallet",
      "outputs": [],
      "stateMutability": "nonpayable",
      "type": "function"
    },
    {
      "inputs": [
        {
          "internalType": "address",
          "name": "beneficiary",
          "type": "address"
        }
      ],
      "name": "buyTokens",
      "outputs": [],
      "stateMutability": "payable",
      "type": "function"
    }
  ],
  "bytecode": "0x608060405234801561001057600080fd5b50604051610bdf380380610bdf83398101604081905261002f916101f6565b6100383361018e565b600180556001600160a01b0383166100a35760405162461bcd60e51b8152602060048201526024808201527f43726f776473616c653a20746f6b656e20697320746865207a65726f206164646044820152637265737360e01b60648201526084015b60405180910390fd5b600082116100f35760405162461bcd60e51b815260206004820152601460248201527f43726f776473616c653a20726174652069732030000000000000000000000000604482015260640161009a565b6001600160a01b0381166101575760405162461bcd60e51b815260206004820152602560248201527f43726f776473616c653a2077616c6c657420697320746865207a65726f206164604482015264647265737360d81b606482015260840161009a565b600280546001600160a01b039485166001600160a01b03199182161790915560039290925560058054919093169116179055610239565b600080546001600160a01b038381166001600160a01b0319831681178455604051919092169283917f8be0079c531659141344cd1fd0a4f28419497f9722a3daafe3b4186f6b6457e09190a35050565b6001600160a01b03811681146101f357600080fd5b50565b60008060006060848603121561020b57600080fd5b8351610216816101de565b60208501516040860151919450925061022e816101de565b809150509250925092565b610997806102486000396000f3fe60806040526004361061008a5760003560e01c80638da5cb5b116100595780638da5cb5b14610124578063deaa59df14610142578063ec8ac4d814610162578063f2fde38b14610170578063fc0c546a1461019057600080fd5b80632c4e722e146100a45780634042b66f146100c8578063521eb273146100dd578063715018a61461010f57600080fd5b3661009f5761009d336101ae565b6101ae565b005b600080fd5b3480156100b057600080fd5b506003545b6040519081526020015b60405180910390f35b3480156100d457600080fd5b506004546100b5565b3480156100e957600080fd5b506005546001600160a01b03165b6040516001600160a01b0390911681526020016100bf565b34801561011b57600080fd5b5061009d610285565b34801561013057600080fd5b506000546001600160a01b03166100f7565b34801561014e57600080fd5b5061009d61015d36600461086f565b610299565b61009d61009836600461086f565b34801561017c57600080fd5b5061009d61018b36600461086f565b61032c565b34801561019c57600080fd5b506002546001600160a01b03166100f7565b6101b66103a2565b346101c182826103fb565b60006101cc826104b8565b6004549091506101dc90836104d5565b6004556002546101f6906001600160a01b031684836104e8565b60408051838152602081018390526001600160a01b0385169133917f6faf93231a456e552dbc9961f58d9713ee4f2e69d15f1975b050ef0911053a7b910160405180910390a36005546040516001600160a01b039091169083156108fc029084906000818181858888f19350505050158015610276573d6000803e3d6000fd5b50505061028260018055565b50565b61028d61053f565b6102976000610599565b565b6102a161053f565b6001600160a01b03811661030a5760405162461bcd60e51b815260206004820152602560248201527f43726f776473616c653a2077616c6c657420697320746865207a65726f206164604482015264647265737360d81b60648201526084015b60405180910390fd5b600580546001600160a01b0319166001600160a01b0392909216919091179055565b61033461053f565b6001600160a01b0381166103995760405162461bcd60e51b815260206004820152602660248201527f4f776e61626c653a206e6577206f776e657220697320746865207a65726f206160448201526564647265737360d01b6064820152608401610301565b61028281610599565b6002600154036103f45760405162461bcd60e51b815260206004820152601f60248201527f5265656e7472616e637947756172643a207265656e7472616e742063616c6c006044820152606401610301565b6002600155565b6001600160a01b0382166104645760405162461bcd60e51b815260206004820152602a60248201527f43726f776473616c653a2062656e656669636961727920697320746865207a65604482015269726f206164647265737360b01b6064820152608401610301565b806000036104b45760405162461bcd60e51b815260206004820152601960248201527f43726f776473616c653a20776569416d6f756e742069732030000000000000006044820152606401610301565b5050565b60006104cf600354836105e990919063ffffffff16565b92915050565b60006104e182846108a2565b9392505050565b604080516001600160a01b038416602482015260448082018490528251808303909101815260649091019091526020810180516001600160e01b031663a9059cbb60e01b17905261053a9084906105f5565b505050565b6000546001600160a01b031633146102975760405162461bcd60e51b815260206004820181905260248201527f4f776e61626c653a2063616c6c6572206973206e6f7420746865206f776e65726044820152606401610301565b600080546001600160a01b038381166001600160a01b0319831681178455604051919092169283917f8be0079c531659141344cd1fd0a4f28419497f9722a3daafe3b4186f6b6457e09190a35050565b60006104e182846108b5565b600061064a826040518060400160405280602081526020017f5361666545524332303a206c6f772d6c6576656c2063616c6c206661696c6564815250856001600160a01b03166106ca9092919063ffffffff16565b905080516000148061066b57508080602001905181019061066b91906108cc565b61053a5760405162461bcd60e51b815260206004820152602a60248201527f5361666545524332303a204552433230206f7065726174696f6e20646964206e6044820152691bdd081cdd58d8d9595960b21b6064820152608401610301565b60606106d984846000856106e1565b949350505050565b6060824710156107425760405162461bcd60e51b815260206004820152602660248201527f416464726573733a20696e73756666696369656e742062616c616e636520666f6044820152651c8818d85b1b60d21b6064820152608401610301565b600080866001600160a01b0316858760405161075e9190610912565b60006040518083038185875af1925050503d806000811461079b576040519150601f19603f3d011682016040523d82523d6000602084013e6107a0565b606091505b50915091506107b1878383876107bc565b979650505050505050565b6060831561082b578251600003610824576001600160a01b0385163b6108245760405162461bcd60e51b815260206004820152601d60248201527f416464726573733a2063616c6c20746f206e6f6e2d636f6e74726163740000006044820152606401610301565b50816106d9565b6106d983838151156108405781518083602001fd5b8060405162461bcd60e51b8152600401610301919061092e565b6001600160a01b038116811461028257600080fd5b60006020828403121561088157600080fd5b81356104e18161085a565b634e487b7160e01b600052601160045260246000fd5b808201808211156104cf576104cf61088c565b80820281158282048414176104cf576104cf61088c565b6000602082840312156108de57600080fd5b815180151581146104e157600080fd5b60005b838110156109095781810151838201526020016108f1565b50506000910152565b600082516109248184602087016108ee565b9190910192915050565b602081526000825180602084015261094d8160408501602087016108ee565b601f01601f1916919091016040019291505056fea26469706673582212201baa13cedc1338bce09e2956148e7b6565f00eae97b027cc538fe75eb2cb3f5464736f6c63430008130033",
  "immutableReferences": {},
  "source": "// SPDX-License-Identifier: MIT\n\npragma solidity ^0.8.0;\n\nimport \"@openzeppelin/contracts/utils/Context.sol\";\nimport \"@openzeppelin/contracts/access/Ownable.sol\";\nimport \"@openzeppelin/contracts/security/ReentrancyGuard.sol\";\nimport \"@openzeppelin/contracts/utils/math/SafeMath.sol\";\nimport \"@openzeppelin/contracts/token/ERC20/utils/SafeERC20.sol\";\nimport \"@openzeppelin/contracts/token/ERC20/IERC20.sol\";\n\ncontract Crowdsale is Context, Ownable, ReentrancyGuard {\n    using SafeMath for uint256;\n    using SafeERC20 for IERC20;\n\n    IERC20 private _token;\n\n    // How many token units a buyer gets per wei\n    // The rate is the conversion between wei and the smallest and indivisible token unit\n    uint256 private _rate;\n    uint256 private _weiRaised;\n\n    address payable private _wallet;\n\n    /**\n     * Event for token purchase logging\n     * @param purchaser who paid for the tokens\n     * @param beneficiary who got the tokens\n     * @param value weis paid for purchase\n     * @param amount amount of tokens purchased\n     */\n    event TokensPurchased(address indexed purchaser, address indexed beneficiary, uint256 value, uint256 amount);\n\n    constructor(IERC20 tokenToSell, uint256 tokenRate, address payable account) {\n        require(address(tokenToSell) != address(0), \"Crowdsale: token is the zero address\");\n        require(tokenRate > 0, \"Crowdsale: rate is 0\");\n        require(account != address(0), \"Crowdsale: wallet is the zero address\");\n\n        _token = tokenToSell;\n        _rate = tokenRate;\n        _wallet = account;\n    }\n\n    function token() external view returns (IERC20) {\n        return _token;\n    }\n\n    function rate() public view returns (uint256) {\n        return _rate;\n    }\n\n    function weiRaised() external view returns (uint256) {\n        return _weiRaised;\n    }\n\n    function wallet() external view returns (address payable) {\n        return _wallet;\n    }\n\n    function setWallet(address payable account) external onlyOwner {\n        require(account != address(0), \"Crowdsale: wallet is the zero address\");\n        _wallet = account;\n    }\n\n    receive() external payable {\n        buyTokens(_msgSender());\n    }\n\n    function buyTokens(address beneficiary) public nonReentrant payable {\n        uint256 weiAmount = msg.value;\n        _preValidatePurchase(beneficiary, weiAmount);\n        uint256 tokens = _getTokenAmount(weiAmount);\n\n        _weiRaised = _weiRaised.add(weiAmount);\n        _token.safeTransfer(beneficiary, tokens);\n        emit TokensPurchased(_msgSender(), beneficiary, weiAmount, tokens);\n\n        _wallet.transfer(weiAmount);\n    }\n\n    function _preValidatePurchase(address beneficiary, uint256 weiAmount) internal virtual view {\n        require(beneficiary != address(0), \"Crowdsale: beneficiary is the zero address\");\n        require(weiAmount != 0, \"Crowdsale: weiAmount is 0\");\n    }\n\n    function _getTokenAmount(uint256 weiAmount) internal virtual view returns (uint256) {\n        return weiAmount.mul(_rate);\n    }\n}\n",
  "sourcePath": "/Users/sylwester/Projects/sdt-tokens/sdt/contracts/Crowdsale.sol",
  "compiler": {
    "name": "solc",
    "version": "0.8.19+commit.7dd6d404.Emscripten.clang"
  },
  "schemaVersion": "3.4.15",
  "updatedAt": "2024-01-06T09:47:45.018Z",
  "devdoc": {
    "events": {
      "TokensPurchased(address,address,uint256,uint256)": {
        "params": {
          "amount": "amount of tokens purchased",
          "beneficiary": "who got the tokens",
          "purchaser": "who paid for the tokens",
          "value": "weis paid for purchase"
        }
      }
    },
    "kind": "dev",
    "methods": {
      "owner()": {
        "details": "Returns the address of the current owner."
      },
      "renounceOwnership()": {
        "details": "Leaves the contract without owner. It will not be possible to call `onlyOwner` functions. Can only be called by the current owner. NOTE: Renouncing ownership will leave the contract without an owner, thereby disabling any functionality that is only available to the owner."
      },
      "transferOwnership(address)": {
        "details": "Transfers ownership of the contract to a new account (`newOwner`). Can only be called by the current owner."
      }
    },
    "version": 1
  },
  "userdoc": {
    "events": {
      "TokensPurchased(address,address,uint256,uint256)": {
        "notice": "Event for token purchase logging"
      }
    },
    "kind": "user",
    "methods": {},
    "version": 1
  }
}