{
  "contractName": "KreaToken",
  "abi": [
    {
      "inputs": [
        {
          "internalType": "string",
          "name": "name",
          "type": "string"
        },
        {
          "internalType": "string",
          "name": "symbol",
          "type": "string"
        },
        {
          "internalType": "uint256",
          "name": "initialSupply",
          "type": "uint256"
        },
        {
          "internalType": "address",
          "name": "owner",
          "type": "address"
        }
      ],
      "stateMutability": "nonpayable",
      "type": "constructor"
    },
    {
      "anonymous": false,
      "inputs": [
        {
          "indexed": true,
          "internalType": "address",
          "name": "owner",
          "type": "address"
        },
        {
          "indexed": true,
          "internalType": "address",
          "name": "spender",
          "type": "address"
        },
        {
          "indexed": false,
          "internalType": "uint256",
          "name": "value",
          "type": "uint256"
        }
      ],
      "name": "Approval",
      "type": "event"
    },
    {
      "anonymous": false,
      "inputs": [
        {
          "indexed": true,
          "internalType": "address",
          "name": "previousOwner",
          "type": "address"
        },
        {
          "indexed": true,
          "internalType": "address",
          "name": "newOwner",
          "type": "address"
        }
      ],
      "name": "OwnershipTransferred",
      "type": "event"
    },
    {
      "anonymous": false,
      "inputs": [
        {
          "indexed": true,
          "internalType": "address",
          "name": "from",
          "type": "address"
        },
        {
          "indexed": true,
          "internalType": "address",
          "name": "to",
          "type": "address"
        },
        {
          "indexed": false,
          "internalType": "uint256",
          "name": "value",
          "type": "uint256"
        }
      ],
      "name": "Transfer",
      "type": "event"
    },
    {
      "inputs": [
        {
          "internalType": "address",
          "name": "owner",
          "type": "address"
        },
        {
          "internalType": "address",
          "name": "spender",
          "type": "address"
        }
      ],
      "name": "allowance",
      "outputs": [
        {
          "internalType": "uint256",
          "name": "",
          "type": "uint256"
        }
      ],
      "stateMutability": "view",
      "type": "function"
    },
    {
      "inputs": [
        {
          "internalType": "address",
          "name": "spender",
          "type": "address"
        },
        {
          "internalType": "uint256",
          "name": "amount",
          "type": "uint256"
        }
      ],
      "name": "approve",
      "outputs": [
        {
          "internalType": "bool",
          "name": "",
          "type": "bool"
        }
      ],
      "stateMutability": "nonpayable",
      "type": "function"
    },
    {
      "inputs": [
        {
          "internalType": "address",
          "name": "account",
          "type": "address"
        }
      ],
      "name": "balanceOf",
      "outputs": [
        {
          "internalType": "uint256",
          "name": "",
          "type": "uint256"
        }
      ],
      "stateMutability": "view",
      "type": "function"
    },
    {
      "inputs": [
        {
          "internalType": "address",
          "name": "spender",
          "type": "address"
        },
        {
          "internalType": "uint256",
          "name": "subtractedValue",
          "type": "uint256"
        }
      ],
      "name": "decreaseAllowance",
      "outputs": [
        {
          "internalType": "bool",
          "name": "",
          "type": "bool"
        }
      ],
      "stateMutability": "nonpayable",
      "type": "function"
    },
    {
      "inputs": [
        {
          "internalType": "address",
          "name": "spender",
          "type": "address"
        },
        {
          "internalType": "uint256",
          "name": "addedValue",
          "type": "uint256"
        }
      ],
      "name": "increaseAllowance",
      "outputs": [
        {
          "internalType": "bool",
          "name": "",
          "type": "bool"
        }
      ],
      "stateMutability": "nonpayable",
      "type": "function"
    },
    {
      "inputs": [],
      "name": "name",
      "outputs": [
        {
          "internalType": "string",
          "name": "",
          "type": "string"
        }
      ],
      "stateMutability": "view",
      "type": "function"
    },
    {
      "inputs": [],
      "name": "owner",
      "outputs": [
        {
          "internalType": "address",
          "name": "",
          "type": "address"
        }
      ],
      "stateMutability": "view",
      "type": "function"
    },
    {
      "inputs": [],
      "name": "renounceOwnership",
      "outputs": [],
      "stateMutability": "nonpayable",
      "type": "function"
    },
    {
      "inputs": [],
      "name": "symbol",
      "outputs": [
        {
          "internalType": "string",
          "name": "",
          "type": "string"
        }
      ],
      "stateMutability": "view",
      "type": "function"
    },
    {
      "inputs": [],
      "name": "totalSupply",
      "outputs": [
        {
          "internalType": "uint256",
          "name": "",
          "type": "uint256"
        }
      ],
      "stateMutability": "view",
      "type": "function"
    },
    {
      "inputs": [
        {
          "internalType": "address",
          "name": "to",
          "type": "address"
        },
        {
          "internalType": "uint256",
          "name": "amount",
          "type": "uint256"
        }
      ],
      "name": "transfer",
      "outputs": [
        {
          "internalType": "bool",
          "name": "",
          "type": "bool"
        }
      ],
      "stateMutability": "nonpayable",
      "type": "function"
    },
    {
      "inputs": [
        {
          "internalType": "address",
          "name": "from",
          "type": "address"
        },
        {
          "internalType": "address",
          "name": "to",
          "type": "address"
        },
        {
          "internalType": "uint256",
          "name": "amount",
          "type": "uint256"
        }
      ],
      "name": "transferFrom",
      "outputs": [
        {
          "internalType": "bool",
          "name": "",
          "type": "bool"
        }
      ],
      "stateMutability": "nonpayable",
      "type": "function"
    },
    {
      "inputs": [
        {
          "internalType": "address",
          "name": "newOwner",
          "type": "address"
        }
      ],
      "name": "transferOwnership",
      "outputs": [],
      "stateMutability": "nonpayable",
      "type": "function"
    },
    {
      "inputs": [],
      "name": "decimals",
      "outputs": [
        {
          "internalType": "uint8",
          "name": "",
          "type": "uint8"
        }
      ],
      "stateMutability": "pure",
      "type": "function"
    },
    {
      "inputs": [
        {
          "internalType": "address",
          "name": "to",
          "type": "address"
        },
        {
          "internalType": "uint256",
          "name": "amount",
          "type": "uint256"
        }
      ],
      "name": "mint",
      "outputs": [],
      "stateMutability": "nonpayable",
      "type": "function"
    },
    {
      "inputs": [],
      "name": "wallet",
      "outputs": [
        {
          "internalType": "address payable",
          "name": "",
          "type": "address"
        }
      ],
      "stateMutability": "view",
      "type": "function"
    },
    {
      "inputs": [
        {
          "internalType": "address payable",
          "name": "account",
          "type": "address"
        }
      ],
      "name": "setWallet",
      "outputs": [],
      "stateMutability": "nonpayable",
      "type": "function"
    },
    {
      "inputs": [
        {
          "internalType": "address",
          "name": "account",
          "type": "address"
        }
      ],
      "name": "isExcluded",
      "outputs": [
        {
          "internalType": "bool",
          "name": "",
          "type": "bool"
        }
      ],
      "stateMutability": "view",
      "type": "function"
    },
    {
      "inputs": [
        {
          "internalType": "address",
          "name": "account",
          "type": "address"
        }
      ],
      "name": "exclude",
      "outputs": [],
      "stateMutability": "nonpayable",
      "type": "function"
    },
    {
      "inputs": [
        {
          "internalType": "address",
          "name": "account",
          "type": "address"
        }
      ],
      "name": "include",
      "outputs": [],
      "stateMutability": "nonpayable",
      "type": "function"
    }
  ],
  "bytecode": "0x60806040523480156200001157600080fd5b5060405162001336380380620013368339810160408190526200003491620002ae565b83836003620000448382620003d1565b506004620000538282620003d1565b505050620000706200006a620000a660201b60201c565b620000aa565b6200007c8183620000fc565b600680546001600160a01b0319166001600160a01b039290921691909117905550620004c5915050565b3390565b600580546001600160a01b038381166001600160a01b0319831681179093556040519116919082907f8be0079c531659141344cd1fd0a4f28419497f9722a3daafe3b4186f6b6457e090600090a35050565b6001600160a01b038216620001575760405162461bcd60e51b815260206004820152601f60248201527f45524332303a206d696e7420746f20746865207a65726f206164647265737300604482015260640160405180910390fd5b80600260008282546200016b91906200049d565b90915550506001600160a01b038216600090815260208190526040812080548392906200019a9084906200049d565b90915550506040518181526001600160a01b038316906000907fddf252ad1be2c89b69c2b068fc378daa952ba7f163c4a11628f55a4df523b3ef9060200160405180910390a35050565b505050565b634e487b7160e01b600052604160045260246000fd5b600082601f8301126200021157600080fd5b81516001600160401b03808211156200022e576200022e620001e9565b604051601f8301601f19908116603f01168101908282118183101715620002595762000259620001e9565b816040528381526020925086838588010111156200027657600080fd5b600091505b838210156200029a57858201830151818301840152908201906200027b565b600093810190920192909252949350505050565b60008060008060808587031215620002c557600080fd5b84516001600160401b0380821115620002dd57600080fd5b620002eb88838901620001ff565b955060208701519150808211156200030257600080fd5b506200031187828801620001ff565b60408701516060880151919550935090506001600160a01b03811681146200033857600080fd5b939692955090935050565b600181811c908216806200035857607f821691505b6020821081036200037957634e487b7160e01b600052602260045260246000fd5b50919050565b601f821115620001e457600081815260208120601f850160051c81016020861015620003a85750805b601f850160051c820191505b81811015620003c957828155600101620003b4565b505050505050565b81516001600160401b03811115620003ed57620003ed620001e9565b6200040581620003fe845462000343565b846200037f565b602080601f8311600181146200043d5760008415620004245750858301515b600019600386901b1c1916600185901b178555620003c9565b600085815260208120601f198616915b828110156200046e578886015182559484019460019091019084016200044d565b50858210156200048d5787850151600019600388901b60f8161c191681555b5050505050600190811b01905550565b80820180821115620004bf57634e487b7160e01b600052601160045260246000fd5b92915050565b610e6180620004d56000396000f3fe608060405234801561001057600080fd5b506004361061012c5760003560e01c8063715018a6116100ad578063c867392811610071578063c867392814610276578063cba0e99614610289578063dd62ed3e146102b5578063deaa59df146102c8578063f2fde38b146102db57600080fd5b8063715018a61461022f5780638da5cb5b1461023757806395d89b4114610248578063a457c2d714610250578063a9059cbb1461026357600080fd5b806339509351116100f457806339509351146101a657806340c10f19146101b95780634febf53d146101ce578063521eb273146101e157806370a082311461020657600080fd5b806306fdde0314610131578063095ea7b31461014f57806318160ddd1461017257806323b872dd14610184578063313ce56714610197575b600080fd5b6101396102ee565b6040516101469190610c6d565b60405180910390f35b61016261015d366004610cd0565b610380565b6040519015158152602001610146565b6002545b604051908152602001610146565b610162610192366004610cfc565b61039a565b60405160008152602001610146565b6101626101b4366004610cd0565b6103be565b6101cc6101c7366004610cd0565b6103e0565b005b6101cc6101dc366004610d3d565b6103f6565b6006546001600160a01b03165b6040516001600160a01b039091168152602001610146565b610176610214366004610d3d565b6001600160a01b031660009081526020819052604090205490565b6101cc610490565b6005546001600160a01b03166101ee565b6101396104a4565b61016261025e366004610cd0565b6104b3565b610162610271366004610cd0565b61052e565b6101cc610284366004610d3d565b61053c565b610162610297366004610d3d565b6001600160a01b031660009081526007602052604090205460ff1690565b6101766102c3366004610d5a565b6105cd565b6101cc6102d6366004610d3d565b6105f8565b6101cc6102e9366004610d3d565b610678565b6060600380546102fd90610d93565b80601f016020809104026020016040519081016040528092919081815260200182805461032990610d93565b80156103765780601f1061034b57610100808354040283529160200191610376565b820191906000526020600020905b81548152906001019060200180831161035957829003601f168201915b5050505050905090565b60003361038e8185856106f1565b60019150505b92915050565b6000336103a8858285610815565b6103b385858561088f565b506001949350505050565b60003361038e8185856103d183836105cd565b6103db9190610de3565b6106f1565b6103e86108f5565b6103f2828261094f565b5050565b6103fe6108f5565b6001600160a01b03811660009081526007602052604090205460ff161561046c5760405162461bcd60e51b815260206004820152601b60248201527f4163636f756e7420697320616c7265616479206578636c75646564000000000060448201526064015b60405180910390fd5b6001600160a01b03166000908152600760205260409020805460ff19166001179055565b6104986108f5565b6104a26000610a2e565b565b6060600480546102fd90610d93565b600033816104c182866105cd565b9050838110156105215760405162461bcd60e51b815260206004820152602560248201527f45524332303a2064656372656173656420616c6c6f77616e63652062656c6f77604482015264207a65726f60d81b6064820152608401610463565b6103b382868684036106f1565b60003361038e81858561088f565b6105446108f5565b6001600160a01b03811660009081526007602052604090205460ff166105ac5760405162461bcd60e51b815260206004820152601760248201527f4163636f756e74206973206e6f74206578636c756465640000000000000000006044820152606401610463565b6001600160a01b03166000908152600760205260409020805460ff19169055565b6001600160a01b03918216600090815260016020908152604080832093909416825291909152205490565b6106006108f5565b6001600160a01b0381166106565760405162461bcd60e51b815260206004820152601a60248201527f57616c6c657420697320746865207a65726f20616464726573730000000000006044820152606401610463565b600680546001600160a01b0319166001600160a01b0392909216919091179055565b6106806108f5565b6001600160a01b0381166106e55760405162461bcd60e51b815260206004820152602660248201527f4f776e61626c653a206e6577206f776e657220697320746865207a65726f206160448201526564647265737360d01b6064820152608401610463565b6106ee81610a2e565b50565b6001600160a01b0383166107535760405162461bcd60e51b8152602060048201526024808201527f45524332303a20617070726f76652066726f6d20746865207a65726f206164646044820152637265737360e01b6064820152608401610463565b6001600160a01b0382166107b45760405162461bcd60e51b815260206004820152602260248201527f45524332303a20617070726f766520746f20746865207a65726f206164647265604482015261737360f01b6064820152608401610463565b6001600160a01b0383811660008181526001602090815260408083209487168084529482529182902085905590518481527f8c5be1e5ebec7d5bd14f71427d1e84f3dd0314c0f7b2291e5b200ac8c7c3b925910160405180910390a3505050565b600061082184846105cd565b90506000198114610889578181101561087c5760405162461bcd60e51b815260206004820152601d60248201527f45524332303a20696e73756666696369656e7420616c6c6f77616e63650000006044820152606401610463565b61088984848484036106f1565b50505050565b6001600160a01b03831660009081526007602052604090205460ff166108e55760006108bc82600a610a80565b6006549091506108d79085906001600160a01b031683610a93565b6108e18282610c61565b9150505b6108f0838383610a93565b505050565b6005546001600160a01b031633146104a25760405162461bcd60e51b815260206004820181905260248201527f4f776e61626c653a2063616c6c6572206973206e6f7420746865206f776e65726044820152606401610463565b6001600160a01b0382166109a55760405162461bcd60e51b815260206004820152601f60248201527f45524332303a206d696e7420746f20746865207a65726f2061646472657373006044820152606401610463565b80600260008282546109b79190610de3565b90915550506001600160a01b038216600090815260208190526040812080548392906109e4908490610de3565b90915550506040518181526001600160a01b038316906000907fddf252ad1be2c89b69c2b068fc378daa952ba7f163c4a11628f55a4df523b3ef9060200160405180910390a35050565b600580546001600160a01b038381166001600160a01b0319831681179093556040519116919082907f8be0079c531659141344cd1fd0a4f28419497f9722a3daafe3b4186f6b6457e090600090a35050565b6000610a8c8284610df6565b9392505050565b6001600160a01b038316610af75760405162461bcd60e51b815260206004820152602560248201527f45524332303a207472616e736665722066726f6d20746865207a65726f206164604482015264647265737360d81b6064820152608401610463565b6001600160a01b038216610b595760405162461bcd60e51b815260206004820152602360248201527f45524332303a207472616e7366657220746f20746865207a65726f206164647260448201526265737360e81b6064820152608401610463565b6001600160a01b03831660009081526020819052604090205481811015610bd15760405162461bcd60e51b815260206004820152602660248201527f45524332303a207472616e7366657220616d6f756e7420657863656564732062604482015265616c616e636560d01b6064820152608401610463565b6001600160a01b03808516600090815260208190526040808220858503905591851681529081208054849290610c08908490610de3565b92505081905550826001600160a01b0316846001600160a01b03167fddf252ad1be2c89b69c2b068fc378daa952ba7f163c4a11628f55a4df523b3ef84604051610c5491815260200190565b60405180910390a3610889565b6000610a8c8284610e18565b600060208083528351808285015260005b81811015610c9a57858101830151858201604001528201610c7e565b506000604082860101526040601f19601f8301168501019250505092915050565b6001600160a01b03811681146106ee57600080fd5b60008060408385031215610ce357600080fd5b8235610cee81610cbb565b946020939093013593505050565b600080600060608486031215610d1157600080fd5b8335610d1c81610cbb565b92506020840135610d2c81610cbb565b929592945050506040919091013590565b600060208284031215610d4f57600080fd5b8135610a8c81610cbb565b60008060408385031215610d6d57600080fd5b8235610d7881610cbb565b91506020830135610d8881610cbb565b809150509250929050565b600181811c90821680610da757607f821691505b602082108103610dc757634e487b7160e01b600052602260045260246000fd5b50919050565b634e487b7160e01b600052601160045260246000fd5b8082018082111561039457610394610dcd565b600082610e1357634e487b7160e01b600052601260045260246000fd5b500490565b8181038181111561039457610394610dcd56fea2646970667358221220d0a548b1be7bcee5c02cbfc57afda9a262eb91ed456cb0eb9cce553a61b8226d64736f6c63430008110033",
  "immutableReferences": {},
  "source": "// SPDX-License-Identifier: MIT\n\npragma solidity ^0.8.0;\n\nimport \"@openzeppelin/contracts/utils/Context.sol\";\nimport \"@openzeppelin/contracts/token/ERC20/ERC20.sol\";\nimport \"@openzeppelin/contracts/access/Ownable.sol\";\nimport \"@openzeppelin/contracts/utils/math/SafeMath.sol\";\n\ncontract KreaToken is Context, ERC20, Ownable {\n    using SafeMath for uint256;\n\n    address payable private _wallet;\n    uint8 private constant _feeDivisor = 10;\n\n    mapping(address => bool) private _isExcluded;\n\n    constructor(\n        string memory name,\n        string memory symbol,\n        uint256 initialSupply,\n        address owner\n    ) ERC20(name, symbol) {\n        _mint(owner, initialSupply);\n        _wallet = payable(owner);\n    }\n\n    function decimals() public pure override returns (uint8) {\n        return 0;\n    }\n\n    function mint(address to, uint256 amount) external onlyOwner {\n        _mint(to, amount);\n    }\n\n    function wallet() external view returns (address payable) {\n        return _wallet;\n    }\n\n    function setWallet(address payable account) external onlyOwner {\n        require(account != address(0), \"Wallet is the zero address\");\n        _wallet = account;\n    }\n\n    function isExcluded(address account) external view returns (bool) {\n        return _isExcluded[account];\n    }\n\n    function exclude(address account) external onlyOwner() {\n        require(!_isExcluded[account], \"Account is already excluded\");\n        _isExcluded[account] = true;\n    }\n\n    function include(address account) external onlyOwner() {\n        require(_isExcluded[account], \"Account is not excluded\");\n        _isExcluded[account] = false;\n    }\n\n    function _transfer(address from, address to, uint256 amount) internal override {\n        if (!_isExcluded[from]) {\n            uint256 fee = amount.div(_feeDivisor);\n            super._transfer(from, _wallet, fee);\n            amount = amount.sub(fee);\n        }\n        super._transfer(from, to, amount);\n    }\n}\n",
  "sourcePath": "/Users/sylwester/Projects/riva-tokens/krea/contracts/KreaToken.sol",
  "compiler": {
    "name": "solc",
    "version": "0.8.17+commit.8df45f5f.Emscripten.clang"
  },
  "schemaVersion": "3.4.10",
  "updatedAt": "2023-02-02T19:04:04.968Z",
  "devdoc": {
    "kind": "dev",
    "methods": {
      "allowance(address,address)": {
        "details": "See {IERC20-allowance}."
      },
      "approve(address,uint256)": {
        "details": "See {IERC20-approve}. NOTE: If `amount` is the maximum `uint256`, the allowance is not updated on `transferFrom`. This is semantically equivalent to an infinite approval. Requirements: - `spender` cannot be the zero address."
      },
      "balanceOf(address)": {
        "details": "See {IERC20-balanceOf}."
      },
      "decimals()": {
        "details": "Returns the number of decimals used to get its user representation. For example, if `decimals` equals `2`, a balance of `505` tokens should be displayed to a user as `5.05` (`505 / 10 ** 2`). Tokens usually opt for a value of 18, imitating the relationship between Ether and Wei. This is the value {ERC20} uses, unless this function is overridden; NOTE: This information is only used for _display_ purposes: it in no way affects any of the arithmetic of the contract, including {IERC20-balanceOf} and {IERC20-transfer}."
      },
      "decreaseAllowance(address,uint256)": {
        "details": "Atomically decreases the allowance granted to `spender` by the caller. This is an alternative to {approve} that can be used as a mitigation for problems described in {IERC20-approve}. Emits an {Approval} event indicating the updated allowance. Requirements: - `spender` cannot be the zero address. - `spender` must have allowance for the caller of at least `subtractedValue`."
      },
      "increaseAllowance(address,uint256)": {
        "details": "Atomically increases the allowance granted to `spender` by the caller. This is an alternative to {approve} that can be used as a mitigation for problems described in {IERC20-approve}. Emits an {Approval} event indicating the updated allowance. Requirements: - `spender` cannot be the zero address."
      },
      "name()": {
        "details": "Returns the name of the token."
      },
      "owner()": {
        "details": "Returns the address of the current owner."
      },
      "renounceOwnership()": {
        "details": "Leaves the contract without owner. It will not be possible to call `onlyOwner` functions anymore. Can only be called by the current owner. NOTE: Renouncing ownership will leave the contract without an owner, thereby removing any functionality that is only available to the owner."
      },
      "symbol()": {
        "details": "Returns the symbol of the token, usually a shorter version of the name."
      },
      "totalSupply()": {
        "details": "See {IERC20-totalSupply}."
      },
      "transfer(address,uint256)": {
        "details": "See {IERC20-transfer}. Requirements: - `to` cannot be the zero address. - the caller must have a balance of at least `amount`."
      },
      "transferFrom(address,address,uint256)": {
        "details": "See {IERC20-transferFrom}. Emits an {Approval} event indicating the updated allowance. This is not required by the EIP. See the note at the beginning of {ERC20}. NOTE: Does not update the allowance if the current allowance is the maximum `uint256`. Requirements: - `from` and `to` cannot be the zero address. - `from` must have a balance of at least `amount`. - the caller must have allowance for ``from``'s tokens of at least `amount`."
      },
      "transferOwnership(address)": {
        "details": "Transfers ownership of the contract to a new account (`newOwner`). Can only be called by the current owner."
      }
    },
    "version": 1
  },
  "userdoc": {
    "kind": "user",
    "methods": {},
    "version": 1
  }
}