{
  "contractName": "ReversedRateCrowdsale",
  "abi": [
    {
      "inputs": [
        {
          "internalType": "contract IERC20",
          "name": "token",
          "type": "address"
        },
        {
          "internalType": "uint256",
          "name": "rate",
          "type": "uint256"
        },
        {
          "internalType": "address payable",
          "name": "wallet",
          "type": "address"
        }
      ],
      "stateMutability": "nonpayable",
      "type": "constructor"
    },
    {
      "anonymous": false,
      "inputs": [
        {
          "indexed": true,
          "internalType": "address",
          "name": "previousOwner",
          "type": "address"
        },
        {
          "indexed": true,
          "internalType": "address",
          "name": "newOwner",
          "type": "address"
        }
      ],
      "name": "OwnershipTransferred",
      "type": "event"
    },
    {
      "anonymous": false,
      "inputs": [
        {
          "indexed": true,
          "internalType": "address",
          "name": "purchaser",
          "type": "address"
        },
        {
          "indexed": true,
          "internalType": "address",
          "name": "beneficiary",
          "type": "address"
        },
        {
          "indexed": false,
          "internalType": "uint256",
          "name": "value",
          "type": "uint256"
        },
        {
          "indexed": false,
          "internalType": "uint256",
          "name": "amount",
          "type": "uint256"
        }
      ],
      "name": "TokensPurchased",
      "type": "event"
    },
    {
      "inputs": [
        {
          "internalType": "address",
          "name": "beneficiary",
          "type": "address"
        }
      ],
      "name": "buyTokens",
      "outputs": [],
      "stateMutability": "payable",
      "type": "function"
    },
    {
      "inputs": [],
      "name": "owner",
      "outputs": [
        {
          "internalType": "address",
          "name": "",
          "type": "address"
        }
      ],
      "stateMutability": "view",
      "type": "function"
    },
    {
      "inputs": [],
      "name": "rate",
      "outputs": [
        {
          "internalType": "uint256",
          "name": "",
          "type": "uint256"
        }
      ],
      "stateMutability": "view",
      "type": "function"
    },
    {
      "inputs": [],
      "name": "renounceOwnership",
      "outputs": [],
      "stateMutability": "nonpayable",
      "type": "function"
    },
    {
      "inputs": [
        {
          "internalType": "address payable",
          "name": "account",
          "type": "address"
        }
      ],
      "name": "setWallet",
      "outputs": [],
      "stateMutability": "nonpayable",
      "type": "function"
    },
    {
      "inputs": [],
      "name": "token",
      "outputs": [
        {
          "internalType": "contract IERC20",
          "name": "",
          "type": "address"
        }
      ],
      "stateMutability": "view",
      "type": "function"
    },
    {
      "inputs": [
        {
          "internalType": "address",
          "name": "newOwner",
          "type": "address"
        }
      ],
      "name": "transferOwnership",
      "outputs": [],
      "stateMutability": "nonpayable",
      "type": "function"
    },
    {
      "inputs": [],
      "name": "wallet",
      "outputs": [
        {
          "internalType": "address payable",
          "name": "",
          "type": "address"
        }
      ],
      "stateMutability": "view",
      "type": "function"
    },
    {
      "inputs": [],
      "name": "weiRaised",
      "outputs": [
        {
          "internalType": "uint256",
          "name": "",
          "type": "uint256"
        }
      ],
      "stateMutability": "view",
      "type": "function"
    },
    {
      "stateMutability": "payable",
      "type": "receive"
    }
  ],
  "bytecode": "0x608060405234801561001057600080fd5b50604051610c53380380610c5383398101604081905261002f916101fd565b82828261003b33610195565b600180556001600160a01b0383166100a65760405162461bcd60e51b8152602060048201526024808201527f43726f776473616c653a20746f6b656e20697320746865207a65726f206164646044820152637265737360e01b60648201526084015b60405180910390fd5b600082116100f65760405162461bcd60e51b815260206004820152601460248201527f43726f776473616c653a20726174652069732030000000000000000000000000604482015260640161009d565b6001600160a01b03811661015a5760405162461bcd60e51b815260206004820152602560248201527f43726f776473616c653a2077616c6c657420697320746865207a65726f206164604482015264647265737360d81b606482015260840161009d565b600280546001600160a01b039485166001600160a01b0319918216179091556003929092556005805491909316911617905550610240915050565b600080546001600160a01b038381166001600160a01b0319831681178455604051919092169283917f8be0079c531659141344cd1fd0a4f28419497f9722a3daafe3b4186f6b6457e09190a35050565b6001600160a01b03811681146101fa57600080fd5b50565b60008060006060848603121561021257600080fd5b835161021d816101e5565b602085015160408601519194509250610235816101e5565b809150509250925092565b610a048061024f6000396000f3fe60806040526004361061008a5760003560e01c80638da5cb5b116100595780638da5cb5b14610124578063deaa59df14610142578063ec8ac4d814610162578063f2fde38b14610170578063fc0c546a1461019057600080fd5b80632c4e722e146100a45780634042b66f146100c8578063521eb273146100dd578063715018a61461010f57600080fd5b3661009f5761009d336101ae565b6101ae565b005b600080fd5b3480156100b057600080fd5b506003545b6040519081526020015b60405180910390f35b3480156100d457600080fd5b506004546100b5565b3480156100e957600080fd5b506005546001600160a01b03165b6040516001600160a01b0390911681526020016100bf565b34801561011b57600080fd5b5061009d610285565b34801561013057600080fd5b506000546001600160a01b03166100f7565b34801561014e57600080fd5b5061009d61015d3660046108d9565b610299565b61009d6100983660046108d9565b34801561017c57600080fd5b5061009d61018b3660046108d9565b61032c565b34801561019c57600080fd5b506002546001600160a01b03166100f7565b6101b66103a2565b346101c182826103fb565b60006101cc8261046b565b6004549091506101dc9083610486565b6004556002546101f6906001600160a01b03168483610499565b60408051838152602081018390526001600160a01b0385169133917f6faf93231a456e552dbc9961f58d9713ee4f2e69d15f1975b050ef0911053a7b910160405180910390a36005546040516001600160a01b039091169083156108fc029084906000818181858888f19350505050158015610276573d6000803e3d6000fd5b50505061028260018055565b50565b61028d6104f0565b610297600061054a565b565b6102a16104f0565b6001600160a01b03811661030a5760405162461bcd60e51b815260206004820152602560248201527f43726f776473616c653a2077616c6c657420697320746865207a65726f206164604482015264647265737360d81b60648201526084015b60405180910390fd5b600580546001600160a01b0319166001600160a01b0392909216919091179055565b6103346104f0565b6001600160a01b0381166103995760405162461bcd60e51b815260206004820152602660248201527f4f776e61626c653a206e6577206f776e657220697320746865207a65726f206160448201526564647265737360d01b6064820152608401610301565b6102828161054a565b6002600154036103f45760405162461bcd60e51b815260206004820152601f60248201527f5265656e7472616e637947756172643a207265656e7472616e742063616c6c006044820152606401610301565b6002600155565b610405828261059a565b6003548110156104675760405162461bcd60e51b815260206004820152602760248201527f43726f776473616c653a20776569416d6f756e74206973206c6f776572207468604482015266616e207261746560c81b6064820152608401610301565b5050565b600061048061047960035490565b8390610653565b92915050565b600061049282846108f6565b9392505050565b604080516001600160a01b038416602482015260448082018490528251808303909101815260649091019091526020810180516001600160e01b031663a9059cbb60e01b1790526104eb90849061065f565b505050565b6000546001600160a01b031633146102975760405162461bcd60e51b815260206004820181905260248201527f4f776e61626c653a2063616c6c6572206973206e6f7420746865206f776e65726044820152606401610301565b600080546001600160a01b038381166001600160a01b0319831681178455604051919092169283917f8be0079c531659141344cd1fd0a4f28419497f9722a3daafe3b4186f6b6457e09190a35050565b6001600160a01b0382166106035760405162461bcd60e51b815260206004820152602a60248201527f43726f776473616c653a2062656e656669636961727920697320746865207a65604482015269726f206164647265737360b01b6064820152608401610301565b806000036104675760405162461bcd60e51b815260206004820152601960248201527f43726f776473616c653a20776569416d6f756e742069732030000000000000006044820152606401610301565b60006104928284610917565b60006106b4826040518060400160405280602081526020017f5361666545524332303a206c6f772d6c6576656c2063616c6c206661696c6564815250856001600160a01b03166107349092919063ffffffff16565b90508051600014806106d55750808060200190518101906106d59190610939565b6104eb5760405162461bcd60e51b815260206004820152602a60248201527f5361666545524332303a204552433230206f7065726174696f6e20646964206e6044820152691bdd081cdd58d8d9595960b21b6064820152608401610301565b6060610743848460008561074b565b949350505050565b6060824710156107ac5760405162461bcd60e51b815260206004820152602660248201527f416464726573733a20696e73756666696369656e742062616c616e636520666f6044820152651c8818d85b1b60d21b6064820152608401610301565b600080866001600160a01b031685876040516107c8919061097f565b60006040518083038185875af1925050503d8060008114610805576040519150601f19603f3d011682016040523d82523d6000602084013e61080a565b606091505b509150915061081b87838387610826565b979650505050505050565b6060831561089557825160000361088e576001600160a01b0385163b61088e5760405162461bcd60e51b815260206004820152601d60248201527f416464726573733a2063616c6c20746f206e6f6e2d636f6e74726163740000006044820152606401610301565b5081610743565b61074383838151156108aa5781518083602001fd5b8060405162461bcd60e51b8152600401610301919061099b565b6001600160a01b038116811461028257600080fd5b6000602082840312156108eb57600080fd5b8135610492816108c4565b8082018082111561048057634e487b7160e01b600052601160045260246000fd5b60008261093457634e487b7160e01b600052601260045260246000fd5b500490565b60006020828403121561094b57600080fd5b8151801515811461049257600080fd5b60005b8381101561097657818101518382015260200161095e565b50506000910152565b6000825161099181846020870161095b565b9190910192915050565b60208152600082518060208401526109ba81604085016020870161095b565b601f01601f1916919091016040019291505056fea264697066735822122061c28ae31285e1e2a5648e18205114c95d7212aa7987890ad0ae22250952086564736f6c63430008130033",
  "immutableReferences": {},
  "source": "// SPDX-License-Identifier: MIT\n\npragma solidity ^0.8.0;\n\nimport \"./Crowdsale.sol\";\nimport \"@openzeppelin/contracts/utils/math/SafeMath.sol\";\nimport \"@openzeppelin/contracts/token/ERC20/IERC20.sol\";\n\ncontract ReversedRateCrowdsale is Crowdsale {\n    using SafeMath for uint256;\n\n    constructor(IERC20 token, uint256 rate, address payable wallet)\n        Crowdsale(token, rate, wallet) {}\n\n    // Changes the way in which ether is converted to tokens with decimals < 18\n    // The rate defines how many wei a buyer pays for token unit\n    function _getTokenAmount(uint256 weiAmount) internal override view returns (uint256) {\n        return weiAmount.div(rate());\n    }\n\n    // Validates if weiAmount is enough to buy 1 token unit\n    function _preValidatePurchase(address beneficiary, uint256 weiAmount) internal override view {\n        super._preValidatePurchase(beneficiary, weiAmount);\n        require(weiAmount >= rate(), \"Crowdsale: weiAmount is lower than rate\");\n    }\n}\n",
  "sourcePath": "/Users/sylwester/Projects/sdt-tokens/sdt/contracts/ReversedRateCrowdsale.sol",
  "compiler": {
    "name": "solc",
    "version": "0.8.19+commit.7dd6d404.Emscripten.clang"
  },
  "schemaVersion": "3.4.15",
  "updatedAt": "2024-01-06T09:47:45.028Z",
  "devdoc": {
    "events": {
      "TokensPurchased(address,address,uint256,uint256)": {
        "params": {
          "amount": "amount of tokens purchased",
          "beneficiary": "who got the tokens",
          "purchaser": "who paid for the tokens",
          "value": "weis paid for purchase"
        }
      }
    },
    "kind": "dev",
    "methods": {
      "owner()": {
        "details": "Returns the address of the current owner."
      },
      "renounceOwnership()": {
        "details": "Leaves the contract without owner. It will not be possible to call `onlyOwner` functions. Can only be called by the current owner. NOTE: Renouncing ownership will leave the contract without an owner, thereby disabling any functionality that is only available to the owner."
      },
      "transferOwnership(address)": {
        "details": "Transfers ownership of the contract to a new account (`newOwner`). Can only be called by the current owner."
      }
    },
    "version": 1
  },
  "userdoc": {
    "events": {
      "TokensPurchased(address,address,uint256,uint256)": {
        "notice": "Event for token purchase logging"
      }
    },
    "kind": "user",
    "methods": {},
    "version": 1
  }
}