{
  "contractName": "SDTFactory",
  "abi": [
    {
      "anonymous": false,
      "inputs": [
        {
          "indexed": false,
          "internalType": "address",
          "name": "token",
          "type": "address"
        },
        {
          "indexed": false,
          "internalType": "string",
          "name": "name",
          "type": "string"
        },
        {
          "indexed": false,
          "internalType": "string",
          "name": "symbol",
          "type": "string"
        },
        {
          "indexed": false,
          "internalType": "uint256",
          "name": "initialSupply",
          "type": "uint256"
        },
        {
          "indexed": false,
          "internalType": "address",
          "name": "holder",
          "type": "address"
        }
      ],
      "name": "Deployed",
      "type": "event"
    },
    {
      "anonymous": false,
      "inputs": [
        {
          "indexed": true,
          "internalType": "address",
          "name": "previousOwner",
          "type": "address"
        },
        {
          "indexed": true,
          "internalType": "address",
          "name": "newOwner",
          "type": "address"
        }
      ],
      "name": "OwnershipTransferred",
      "type": "event"
    },
    {
      "inputs": [],
      "name": "owner",
      "outputs": [
        {
          "internalType": "address",
          "name": "",
          "type": "address"
        }
      ],
      "stateMutability": "view",
      "type": "function",
      "constant": true
    },
    {
      "inputs": [],
      "name": "renounceOwnership",
      "outputs": [],
      "stateMutability": "nonpayable",
      "type": "function"
    },
    {
      "inputs": [
        {
          "internalType": "address",
          "name": "newOwner",
          "type": "address"
        }
      ],
      "name": "transferOwnership",
      "outputs": [],
      "stateMutability": "nonpayable",
      "type": "function"
    },
    {
      "inputs": [],
      "name": "getTokens",
      "outputs": [
        {
          "internalType": "address[]",
          "name": "",
          "type": "address[]"
        }
      ],
      "stateMutability": "view",
      "type": "function",
      "constant": true
    },
    {
      "inputs": [
        {
          "internalType": "string",
          "name": "name",
          "type": "string"
        },
        {
          "internalType": "string",
          "name": "symbol",
          "type": "string"
        },
        {
          "internalType": "uint256",
          "name": "initialSupply",
          "type": "uint256"
        },
        {
          "internalType": "address",
          "name": "holder",
          "type": "address"
        }
      ],
      "name": "createToken",
      "outputs": [],
      "stateMutability": "nonpayable",
      "type": "function"
    }
  ],
  "bytecode": "0x608060405234801561001057600080fd5b5061001a3361001f565b61006f565b600080546001600160a01b038381166001600160a01b0319831681178455604051919092169283917f8be0079c531659141344cd1fd0a4f28419497f9722a3daafe3b4186f6b6457e09190a35050565b6118458061007e6000396000f3fe60806040523480156200001157600080fd5b50600436106200005e5760003560e01c806334f359f91462000063578063715018a6146200007c5780638da5cb5b1462000086578063aa6ca80814620000a6578063f2fde38b14620000bf575b600080fd5b6200007a62000074366004620004a5565b620000d6565b005b6200007a62000224565b6000546040516001600160a01b0390911681526020015b60405180910390f35b620000b06200023c565b6040516200009d91906200052c565b6200007a620000d03660046200057b565b620002a0565b620000e062000323565b600084848484604051620000f490620003cf565b620001039493929190620005e8565b604051809103906000f08015801562000120573d6000803e3d6000fd5b5090506001600160a01b03811663f2fde38b336040516001600160e01b031960e084901b1681526001600160a01b039091166004820152602401600060405180830381600087803b1580156200017557600080fd5b505af11580156200018a573d6000803e3d6000fd5b50506001805480820182556000919091527fb10e2d527612073b26eecdfd717e6a320cf44b4afac2b0732d9fcbe2b7fa0cf60180546001600160a01b0319166001600160a01b038516179055505060405181907f1b0214fed66a74535f01577ef2a25160ce632b5dbf2e8d7fb1bac2463a51d5f29062000214908390899089908990899062000633565b60405180910390a1505050505050565b6200022e62000323565b6200023a60006200037f565b565b606060018054806020026020016040519081016040528092919081815260200182805480156200029657602002820191906000526020600020905b81546001600160a01b0316815260019091019060200180831162000277575b5050505050905090565b620002aa62000323565b6001600160a01b038116620003155760405162461bcd60e51b815260206004820152602660248201527f4f776e61626c653a206e6577206f776e657220697320746865207a65726f206160448201526564647265737360d01b60648201526084015b60405180910390fd5b62000320816200037f565b50565b6000546001600160a01b031633146200023a5760405162461bcd60e51b815260206004820181905260248201527f4f776e61626c653a2063616c6c6572206973206e6f7420746865206f776e657260448201526064016200030c565b600080546001600160a01b038381166001600160a01b0319831681178455604051919092169283917f8be0079c531659141344cd1fd0a4f28419497f9722a3daafe3b4186f6b6457e09190a35050565b611189806200068783390190565b634e487b7160e01b600052604160045260246000fd5b600082601f8301126200040557600080fd5b813567ffffffffffffffff80821115620004235762000423620003dd565b604051601f8301601f19908116603f011681019082821181831017156200044e576200044e620003dd565b816040528381528660208588010111156200046857600080fd5b836020870160208301376000602085830101528094505050505092915050565b80356001600160a01b0381168114620004a057600080fd5b919050565b60008060008060808587031215620004bc57600080fd5b843567ffffffffffffffff80821115620004d557600080fd5b620004e388838901620003f3565b95506020870135915080821115620004fa57600080fd5b506200050987828801620003f3565b93505060408501359150620005216060860162000488565b905092959194509250565b6020808252825182820181905260009190848201906040850190845b818110156200056f5783516001600160a01b03168352928401929184019160010162000548565b50909695505050505050565b6000602082840312156200058e57600080fd5b620005998262000488565b9392505050565b6000815180845260005b81811015620005c857602081850181015186830182015201620005aa565b506000602082860101526020601f19601f83011685010191505092915050565b608081526000620005fd6080830187620005a0565b8281036020840152620006118187620005a0565b604084019590955250506001600160a01b039190911660609091015292915050565b600060018060a01b03808816835260a060208401526200065760a0840188620005a0565b83810360408501526200066b8188620005a0565b6060850196909652509290921660809091015250939250505056fe60806040523480156200001157600080fd5b5060405162001189380380620011898339810160408190526200003491620002fe565b8383600362000044838262000421565b50600462000053828262000421565b505050620000706200006a6200009360201b60201c565b62000097565b6005805460ff60a01b19169055620000898183620000e9565b5050505062000515565b3390565b600580546001600160a01b038381166001600160a01b0319831681179093556040519116919082907f8be0079c531659141344cd1fd0a4f28419497f9722a3daafe3b4186f6b6457e090600090a35050565b6001600160a01b038216620001455760405162461bcd60e51b815260206004820152601f60248201527f45524332303a206d696e7420746f20746865207a65726f20616464726573730060448201526064015b60405180910390fd5b6200015360008383620001be565b8060026000828254620001679190620004ed565b90915550506001600160a01b038216600081815260208181526040808320805486019055518481527fddf252ad1be2c89b69c2b068fc378daa952ba7f163c4a11628f55a4df523b3ef910160405180910390a35050565b620001d2600554600160a01b900460ff1690565b15620002345760405162461bcd60e51b815260206004820152602a60248201527f45524332305061757361626c653a20746f6b656e207472616e736665722077686044820152691a5b19481c185d5cd95960b21b60648201526084016200013c565b505050565b634e487b7160e01b600052604160045260246000fd5b600082601f8301126200026157600080fd5b81516001600160401b03808211156200027e576200027e62000239565b604051601f8301601f19908116603f01168101908282118183101715620002a957620002a962000239565b81604052838152602092508683858801011115620002c657600080fd5b600091505b83821015620002ea5785820183015181830184015290820190620002cb565b600093810190920192909252949350505050565b600080600080608085870312156200031557600080fd5b84516001600160401b03808211156200032d57600080fd5b6200033b888389016200024f565b955060208701519150808211156200035257600080fd5b5062000361878288016200024f565b60408701516060880151919550935090506001600160a01b03811681146200038857600080fd5b939692955090935050565b600181811c90821680620003a857607f821691505b602082108103620003c957634e487b7160e01b600052602260045260246000fd5b50919050565b601f8211156200023457600081815260208120601f850160051c81016020861015620003f85750805b601f850160051c820191505b81811015620004195782815560010162000404565b505050505050565b81516001600160401b038111156200043d576200043d62000239565b62000455816200044e845462000393565b84620003cf565b602080601f8311600181146200048d5760008415620004745750858301515b600019600386901b1c1916600185901b17855562000419565b600085815260208120601f198616915b82811015620004be578886015182559484019460019091019084016200049d565b5085821015620004dd5787850151600019600388901b60f8161c191681555b5050505050600190811b01905550565b808201808211156200050f57634e487b7160e01b600052601160045260246000fd5b92915050565b610c6480620005256000396000f3fe608060405234801561001057600080fd5b506004361061010b5760003560e01c806370a08231116100a257806395d89b411161007157806395d89b41146101f6578063a457c2d7146101fe578063a9059cbb14610211578063dd62ed3e14610224578063f2fde38b1461023757600080fd5b806370a08231146101b8578063715018a6146101cb5780638456cb59146101d35780638da5cb5b146101db57600080fd5b8063313ce567116100de578063313ce5671461017a57806339509351146101895780633f4ba83a1461019c5780635c975abb146101a657600080fd5b806306fdde0314610110578063095ea7b31461012e57806318160ddd1461015157806323b872dd14610167575b600080fd5b61011861024a565b6040516101259190610aae565b60405180910390f35b61014161013c366004610b18565b6102dc565b6040519015158152602001610125565b6101596102f6565b604051908152602001610125565b610141610175366004610b42565b610318565b60405160088152602001610125565b610141610197366004610b18565b61033c565b6101a461035e565b005b600554600160a01b900460ff16610141565b6101596101c6366004610b7e565b610370565b6101a46103ab565b6101a46103bd565b6005546040516001600160a01b039091168152602001610125565b6101186103cd565b61014161020c366004610b18565b6103dc565b61014161021f366004610b18565b61045c565b610159610232366004610ba0565b61046a565b6101a4610245366004610b7e565b610495565b60606003805461025990610bd3565b80601f016020809104026020016040519081016040528092919081815260200182805461028590610bd3565b80156102d25780601f106102a7576101008083540402835291602001916102d2565b820191906000526020600020905b8154815290600101906020018083116102b557829003601f168201915b5050505050905090565b6000336102ea81858561050e565b60019150505b92915050565b600554600090600160a01b900460ff16156103115750600090565b5060025490565b600033610326858285610632565b6103318585856106ac565b506001949350505050565b6000336102ea81858561034f838361046a565b6103599190610c0d565b61050e565b61036661085b565b61036e6108b5565b565b600554600090600160a01b900460ff161561038d57506000919050565b6001600160a01b0382166000908152602081905260409020546102f0565b6103b361085b565b61036e600061090a565b6103c561085b565b61036e61095c565b60606004805461025990610bd3565b600033816103ea828661046a565b90508381101561044f5760405162461bcd60e51b815260206004820152602560248201527f45524332303a2064656372656173656420616c6c6f77616e63652062656c6f77604482015264207a65726f60d81b60648201526084015b60405180910390fd5b610331828686840361050e565b6000336102ea8185856106ac565b6001600160a01b03918216600090815260016020908152604080832093909416825291909152205490565b61049d61085b565b6001600160a01b0381166105025760405162461bcd60e51b815260206004820152602660248201527f4f776e61626c653a206e6577206f776e657220697320746865207a65726f206160448201526564647265737360d01b6064820152608401610446565b61050b8161090a565b50565b6001600160a01b0383166105705760405162461bcd60e51b8152602060048201526024808201527f45524332303a20617070726f76652066726f6d20746865207a65726f206164646044820152637265737360e01b6064820152608401610446565b6001600160a01b0382166105d15760405162461bcd60e51b815260206004820152602260248201527f45524332303a20617070726f766520746f20746865207a65726f206164647265604482015261737360f01b6064820152608401610446565b6001600160a01b0383811660008181526001602090815260408083209487168084529482529182902085905590518481527f8c5be1e5ebec7d5bd14f71427d1e84f3dd0314c0f7b2291e5b200ac8c7c3b925910160405180910390a3505050565b600061063e848461046a565b905060001981146106a657818110156106995760405162461bcd60e51b815260206004820152601d60248201527f45524332303a20696e73756666696369656e7420616c6c6f77616e63650000006044820152606401610446565b6106a6848484840361050e565b50505050565b6001600160a01b0383166107105760405162461bcd60e51b815260206004820152602560248201527f45524332303a207472616e736665722066726f6d20746865207a65726f206164604482015264647265737360d81b6064820152608401610446565b6001600160a01b0382166107725760405162461bcd60e51b815260206004820152602360248201527f45524332303a207472616e7366657220746f20746865207a65726f206164647260448201526265737360e81b6064820152608401610446565b61077d83838361099f565b6001600160a01b038316600090815260208190526040902054818110156107f55760405162461bcd60e51b815260206004820152602660248201527f45524332303a207472616e7366657220616d6f756e7420657863656564732062604482015265616c616e636560d01b6064820152608401610446565b6001600160a01b03848116600081815260208181526040808320878703905593871680835291849020805487019055925185815290927fddf252ad1be2c89b69c2b068fc378daa952ba7f163c4a11628f55a4df523b3ef910160405180910390a36106a6565b6005546001600160a01b0316331461036e5760405162461bcd60e51b815260206004820181905260248201527f4f776e61626c653a2063616c6c6572206973206e6f7420746865206f776e65726044820152606401610446565b6108bd610a11565b6005805460ff60a01b191690557f5db9ee0a495bf2e6ff9c91a7834c1ba4fdd244a5e8aa4e537bd38aeae4b073aa335b6040516001600160a01b03909116815260200160405180910390a1565b600580546001600160a01b038381166001600160a01b0319831681179093556040519116919082907f8be0079c531659141344cd1fd0a4f28419497f9722a3daafe3b4186f6b6457e090600090a35050565b610964610a61565b6005805460ff60a01b1916600160a01b1790557f62e78cea01bee320cd4e420270b5ea74000d11b0c9f74754ebdbfc544b05a2586108ed3390565b600554600160a01b900460ff1615610a0c5760405162461bcd60e51b815260206004820152602a60248201527f45524332305061757361626c653a20746f6b656e207472616e736665722077686044820152691a5b19481c185d5cd95960b21b6064820152608401610446565b505050565b600554600160a01b900460ff1661036e5760405162461bcd60e51b815260206004820152601460248201527314185d5cd8589b194e881b9bdd081c185d5cd95960621b6044820152606401610446565b600554600160a01b900460ff161561036e5760405162461bcd60e51b815260206004820152601060248201526f14185d5cd8589b194e881c185d5cd95960821b6044820152606401610446565b600060208083528351808285015260005b81811015610adb57858101830151858201604001528201610abf565b506000604082860101526040601f19601f8301168501019250505092915050565b80356001600160a01b0381168114610b1357600080fd5b919050565b60008060408385031215610b2b57600080fd5b610b3483610afc565b946020939093013593505050565b600080600060608486031215610b5757600080fd5b610b6084610afc565b9250610b6e60208501610afc565b9150604084013590509250925092565b600060208284031215610b9057600080fd5b610b9982610afc565b9392505050565b60008060408385031215610bb357600080fd5b610bbc83610afc565b9150610bca60208401610afc565b90509250929050565b600181811c90821680610be757607f821691505b602082108103610c0757634e487b7160e01b600052602260045260246000fd5b50919050565b808201808211156102f057634e487b7160e01b600052601160045260246000fdfea264697066735822122077f8e6a463aa494416017b75d176803f10b3bcb559386a4628aa8f0312f1a3a564736f6c63430008130033a26469706673582212206d24938a465f5c28df3d400080dd51a67a310719da4da455f354b8e7c61f454c64736f6c63430008130033",
  "immutableReferences": {},
  "source": "// SPDX-License-Identifier: MIT\n\npragma solidity ^0.8.0;\n\nimport \"@openzeppelin/contracts/access/Ownable.sol\";\nimport \"./SDT.sol\";\n\ncontract SDTFactory is Context, Ownable {\n    address[] private _tokens;\n\n    event Deployed(address token, string name, string symbol, uint256 initialSupply, address holder);\n\n    function getTokens() external view returns (address[] memory) {\n        return _tokens;\n    }\n\n    function createToken(\n        string memory name,\n        string memory symbol,\n        uint256 initialSupply,\n        address holder\n    ) external onlyOwner {\n\n        SDT token = new SDT(name, symbol, initialSupply, holder);\n        token.transferOwnership(_msgSender());\n\n        address tokenAddress = address(token);\n        _tokens.push(tokenAddress);\n\n        emit Deployed(tokenAddress, name, symbol, initialSupply, holder);\n    }\n}\n",
  "sourcePath": "/Users/sylwester/Projects/sdt-tokens/sdt/contracts/SDTFactory.sol",
  "compiler": {
    "name": "solc",
    "version": "0.8.19+commit.7dd6d404.Emscripten.clang"
  },
  "schemaVersion": "3.4.15",
  "updatedAt": "2024-01-08T21:04:07.275Z",
  "networkType": "ethereum",
  "devdoc": {
    "kind": "dev",
    "methods": {
      "owner()": {
        "details": "Returns the address of the current owner."
      },
      "renounceOwnership()": {
        "details": "Leaves the contract without owner. It will not be possible to call `onlyOwner` functions. Can only be called by the current owner. NOTE: Renouncing ownership will leave the contract without an owner, thereby disabling any functionality that is only available to the owner."
      },
      "transferOwnership(address)": {
        "details": "Transfers ownership of the contract to a new account (`newOwner`). Can only be called by the current owner."
      }
    },
    "version": 1
  },
  "userdoc": {
    "kind": "user",
    "methods": {},
    "version": 1
  }
}